:100000000C94BF020C9406030C9406030C94060394
:100010000C9406030C9406030C9406030C9406033C
:100020000C9406030C9406030C942F0C0C94010DF5
:100030000C9406030C9406030C9406030C9406031C
:100040000C9406030C94A3210C9406030C94060351
:100050000C9406030C942F1B0C9406030C940603BB
:100060000C9406030C9406030C9406030C940603EC
:100070000C9406030C9406030C9406030C940603DC
:100080000C9406030C9406030C9406030C940603CC
:100090000C9406030C9406030C9406030C940603BC
:1000A0000C9406030C9406030C9406036E0D900D3D
:1000B000830E900D830ED50DF80D830E4D0E600E40
:1000C0005411541183118311C61100120D140D1413
:1000D00019120D140E130E13E1130D140D14F81351
:1000E00001AB02AB01BB02BB01AC02AC01BC02BC68
:1000F0002E0031002B00E100297800001E001400C2
:1001000004001D00350001521F001A0016001B00DC
:100110003100E100200008000700060050002C001C
:1001200021001500090019004F00E200220017000D
:100130000A0005000000E000350229000000280048
:1001400000000252A8002F0000004C0000000252E4
:1001500023001C000B0011000000E4002400180024
:100160000D0010005100E20025000C000E003600CA
:1001700052002A00260012000F0037002F00E50071
:100180002700130033003800300001522D003000EA
:100190003400E50028780000010038000154010017
:1001A000010000003A002D022D003702010001007D
:1001B0003B002E022E003602010001003C002F02FF
:1001C00026022F00010001003D003002270230000E
:1001D000010001003E003402340031020000010041
:1001E0004400010000000100000001004500800003
:1001F00000008100000001003F004A0050000100A3
:100200000000010040004E005100010000300100DC
:1002100041004E0052000100AE00010042004D00BE
:100220004F00010001300100430001000100010006
:10023000A800010001002F0001540100010000008E
:10024000035401000254010046040000010026028C
:100250000100010001000100010027022302200229
:10026000010001000100250222021F02010001001D
:100270000100240221021E02010001000100010010
:100280000100010000000100010001000000010068
:100290000000010001000100000001000000010059
:1002A00001000100010001000000010001005F00E9
:1002B0005C00590062000100540060005D005A00BB
:1002C00062000100550061005E005B0063000100F8
:1002D0005600570033025800580001000354010033
:1002E00002540100010000000100010001000100B2
:1002F00000500000010001000100010001000100A8
:1003000001000100010001000100010001000100E5
:1003100001000100010001000100010001000100D5
:1003200001000100010001000100010000000100C6
:1003300001000100000001000000010001000100B7
:1003400000000100000001000100010001000100A7
:100350000000010001000100010001000100010096
:100360000100010001000100010001000100010085
:100370000100010001000100010001000100010075
:100380000100010001000100010001000050000017
:1003900016034500720067006F0044006F0078008C
:1003A000200045005A000000160345007200670057
:1003B0006F0044006F007800200045005A000000E4
:1003C0000403090409026D00040100A0FA090400F5
:1003D000000103010100092111010001223F000772
:1003E00005810308000A0904010001030102000954
:1003F0002111010001224D000705820308000A09AE
:10040000040200010300000009211101000122364D
:10041000000705830308000A090403000103000024
:100420000009211101000122390007058403100091
:10043000011201100100000008EDFE071301000188
:1004400002000105010906A101050719E029E715C8
:1004500000250195087501810205081901290595F6
:100460000575019102950175039101050719002990
:100470007715002501957875018102C00501098075
:10048000A101850216010026B7001A01002AB70053
:10049000751095018100C0050C0901A101850316A5
:1004A0000100269C021A01002A9C02751095018108
:1004B00000C005010902A1010901A10005091901F6
:1004C0002905150025019505750181029501750322
:1004D00081010501093009311581257F95027508D3
:1004E000810609381581257F950175088106050C5F
:1004F0000A38021581257F950175088106C0C0055F
:10050000010906A101050719E029E7150025019554
:1005100008750181029501750881010508190129F5
:10052000059505750191029501750391010507195E
:100530000029FF150025FF950675088100C0000001
:10054000000000000000000000010204060A0F176E
:10055000202C3A4A5D71879DB3C7DAE9F5FCFFFCB0
:10056000F5E9DAC7B39D87715D4A3A2C20170F0A67
:100570000604020100000000000000000000112439
:100580001FBECFEFDAE0DEBFCDBF04B603FE27C04B
:100590008091EE019091EF01A091F001B091F101F5
:1005A0008730904BA740B04BD1F41092EE011092DF
:1005B000EF011092F0011092F10114BE84B7877F11
:1005C00084BF0FB6F894A8958091600088618093ED
:1005D0006000109260000FBEE0E0FFE3099511E0BB
:1005E000A0E0B1E0E8EEF6E402C005900D92A4337D
:1005F000B107D9F721E0A4E3B1E001C01D92AE3EFE
:10060000B207E1F70E9476090C9472230C94000063
:10061000662319F0613041F00EC0FC01828188230D
:1006200051F088EE90E00895FC018281882319F052
:1006300080EE90E0089580E090E008950895609144
:10064000B1017091B2018091B3019091B4010E9407
:10065000591A56985E9825982D9826982E9827987E
:100660002F98823039F0833041F0813061F4259A3F
:100670002D9A0895269A2E9A0895259A2D9A269AAB
:100680002E9A279A2F9A08950C941F0356985E98D5
:1006900025982D9826982E9827982F988FEF90E0E0
:1006A000909389008093880090938B0080938A00B8
:1006B00090938D0080938C00259A2D9A2FEF80E7E0
:1006C00092E0215080409040E1F700C00000269A5F
:1006D0002E9A2FEF80E792E0215080409040E1F782
:1006E00000C00000279A2F9A2FEF80E792E0215058
:1006F00080409040E1F700C0000025982D982FEF32
:1007000080E792E0215080409040E1F700C0000077
:1007100026982E982FEF80E792E02150804090405D
:10072000E1F700C0000027982F9856985E9825980A
:100730002D9826982E9827982F98089589EA8093C7
:10074000800089E08093810024982C983F988AB19A
:100750008F748AB96E98479A8BB1806B8BB9769AF1
:100760000E9446030C941E0380E280930001809156
:10077000340181110EC00E94030481E08093340192
:100780002FEF83ED90E3215080409040E1F700C0CF
:10079000000080E40E9409048093000181112EC0B2
:1007A0000E94330480930001811128C00E94330409
:1007B00080930001811122C08FE30E943304809353
:1007C000000181111BC00E942B0480E40E940904D7
:1007D00080930001811112C08CE00E943304809349
:1007E000000181110BC00E9433048093000181112C
:1007F00005C08FE30E943304809300010E942B0404
:100800008091000108951092B9008AE08093B800A9
:10081000089594EA9093BC009091BC0097FFFCCFA0
:100820009091B900987F983021F0903111F081E0DB
:1008300008958093BB0084E88093BC008091BC0045
:1008400087FFFCCF8091B900887F883111F0803418
:1008500071F780E0089584E98093BC008091BC002A
:1008600084FDFCCF08958093BB0084E88093BC0096
:100870008091BC0087FFFCCF9091B900987F81E008
:10088000983209F480E0089584E88093BC00809158
:10089000BC0087FFFCCF8091BB00089580910001D0
:1008A000811115C080E40E94090480930001811128
:1008B0000CC082E10E94330480930001811105C0C5
:1008C0008FEF0E943304809300010E942B0484B1B7
:1008D000807F84B985B1807F85B98AB1837F8AB9E9
:1008E0008BB1837F8BB93E98469808950E94B403DC
:1008F000809300010E944E0480B38C7080BB81B352
:10090000836F81BBE4E4F1E0A6E3B1E011921D92B4
:1009100081E0E235F807D1F70C949E039F92AF92E5
:10092000BF92CF92DF92EF92FF920F931F93CF93DC
:10093000DF9380910001882379F0809135018F5FEA
:1009400080933501811108C00E94B4038093000197
:10095000811102C00E94460386E3E82E81E0F82E52
:100960008701C0E0D0E0BB24B39492E0A92ECC2450
:10097000C394D12CC730D10500F5809100018111BD
:1009800064C080E40E94090480930001811112C0B8
:1009900082E10E9433048093000181110BC0C601E3
:1009A0000C2E01C0880F0A94EAF780950E94330448
:1009B000809300010E942B0448C0CA30A1F028F4A3
:1009C000C83059F0C93061F005C0CC3089F070F002
:1009D000CD3089F0209A289810C0219A29980DC00E
:1009E000229A2A980AC0239A2B9807C0529A01C0CB
:1009F000539A5B9802C03E9A4698E0EAEA95F1F76E
:100A00008FB181708B25799902C032E001C030E04E
:100A1000832B7C9902C034E001C030E0832B7D99A8
:100A200002C028E001C020E0822B7E9902C090E144
:100A300001C090E0892B9FB19095991F9927991F2C
:100A40009295990F907E892B0FC0809100018111A2
:100A50004AC080E40E94090480930001882381F148
:100A6000912C0E942B04892DD8019C91981719F084
:100A70008C93A09201010E944E0421960F5F1F4F9C
:100A8000CE30D10509F076CF80910101882369F13C
:100A9000815080930101882339F0EFE9FFE031971D
:100AA000F1F700C0000021C0E4E4F1E0D7018D912E
:100AB0007D018193B4E4EB16B1E0FB06B9F715C0F4
:100AC00083E10E943304809300018111C9CF81E446
:100AD0000E940904809300018111C2CF0E94440446
:100AE000982E9094BECF80E0BFCF0E94440381E057
:100AF000DF91CF911F910F91FF90EF90DF90CF90FA
:100B0000BF90AF909F900895E82FF0E0EC5BFE4F10
:100B10008081089508958B3B910580F4883A910572
:100B200048F5853A9105D8F48430910508F0B2C0B3
:100B3000019709F06EC081E090E00895803E910534
:100B400008F467C0883E910508F4A4C09C01205FAA
:100B500031092031310508F05CC090650895853A6F
:100B6000910509F459C0863A910509F058C082E808
:100B700090E40895883A910509F454C0893A9105A2
:100B800009F453C08A3A910509F452C08B3A910591
:100B900009F451C08C3A910509F450C08D3A910581
:100BA00009F44FC0803B910509F44EC08E3A91057F
:100BB00009F44DC08F3A910509F44CC0813B910571
:100BC00009F44BC0823B910509F44AC0833B91056F
:100BD00009F449C0843B910509F448C0853B91055F
:100BE00009F447C0863B910509F446C0873B91054F
:100BF00009F445C0883B910509F444C0893B91053F
:100C000009F443C08A3B910509F442C080E094E4B2
:100C1000089580E090E0089581E890E4089583E8E5
:100C200090E4089582EE94E4089589EE94E40895A2
:100C30008AEE94E4089585EB94E4089586EB94E4B9
:100C4000089587EB94E408958CEC94E408958DEC7A
:100C500094E4089583E895E408958AE895E4089576
:100C600082E995E4089584E995E4089581E296E4A3
:100C7000089583E296E4089584E296E4089585E277
:100C800096E4089586E296E4089587E296E408954E
:100C90008AE296E40895089524E5829FC001112414
:100CA000FC0126E0729FE00DF11D1124E60FF11DFD
:100CB000EE0FFF1FE051FF4F859194910895880F2B
:100CC000991FFC01E059F040859194910895880F97
:100CD000991FFC01E051FF4F85919491089524E5FF
:100CE000829FC0011124FC0146E0749FE00DF11DBC
:100CF0001124E60FF11DEE0FFF1FE051FF4F85910C
:100D000094919C013A9521154FE1340708F427C1CD
:100D10003F512115304120F49F700E9467060895CD
:100D20009C0130532115304118F49927906C089597
:100D3000811520E5920771F40E9431144FEF84E38E
:100D40009CE0415080409040E1F700C000000E94CC
:100D5000541B05C1813020E5920731F48091CD010B
:100D600081608093CD01FBC09C013055211530413D
:100D700008F05CC0292F33272F703327213031052D
:100D8000E9F4AC0164E0440F551F6A95E1F744278C
:100D90005370BC016370772702C0220F331F6A951E
:100DA000E2F73C68242B352B73E0880F991F7A9566
:100DB000E1F780769927822B932B08952230310515
:100DC00029F4982F8827816F906A08952330310580
:100DD000A1F4AC0133E0440F551F3A95E1F7407E92
:100DE00057708370992721E030E002C0220F331F33
:100DF0008A95E2F7C9019C6816C02430310531F5A7
:100E0000AC0123E0440F551F2A95E1F7407E57704F
:100E10008370992721E030E002C0220F331F8A95AA
:100E2000E2F7C9019A68842B952B08959C013057ED
:100E30002115304118F49F70906208959C0130583C
:100E40002115304118F49F70906A0895803E9105F5
:100E5000E0F4803C910558F58133910509F46FC0A9
:100E600048F48932910509F463C08A32910509F486
:100E70006DC072C089339105E9F082389105D1F0D7
:100E80008533910509F44DC067C0833E910581F11A
:100E900038F4803E9105B9F0823E9105D9F05CC0EE
:100EA000863E910561F1873E9105A1F155C00E94F2
:100EB0005F0608952091DF0120FD02C021FF4CC094
:100EC00080EE90E049C08091DF0180FFF9CF89E397
:100ED00090E042C08091DF0182FF0EC08091DF016F
:100EE00084FF03C080E090E037C083EE90E034C020
:100EF0008091DF0182FFF2CF82EE90E02DC08091E1
:100F0000DF0183FF0BC08091DF0184FDEBCF87EE13
:100F100090E022C08091DF0183FFF5CF86EE90E064
:100F20001BC08091DF0185FF07C089E290E014C0FB
:100F30008091DF0185FFF9CF85E390E00DC08091BE
:100F4000DF0186FF07C08AE290E006C08091DF01E2
:100F500086FFF9CF81E390E00E948B050895089504
:100F600008950C94B007809162010895CF93DF93A8
:100F700000D01F92CDB7DEB79C018091E50184308F
:100F800019F593E099833B832A839093E9008FEFCF
:100F90009091E800815095FD06C095ED9A95F1F786
:100FA00000008111F5CF8091E80085FF0DC040E081
:100FB00050E063E070E0CE0101960E94230A809128
:100FC000E8008E778093E8000F900F900F90DF91EC
:100FD000CF910895CF93DF9300D01F92CDB7DEB7A6
:100FE0002091E501243021F522E029839B838A8327
:100FF00083E08093E9008FEF9091E800815095FDA8
:1010000006C095ED9A95F1F700008111F5CF80911A
:10101000E80085FF0DC040E050E063E070E0CE01E5
:1010200001960E94230A8091E8008E778093E80061
:101030000F900F900F90DF91CF9108959C018091B8
:10104000E5018430F9F482E08093E9009FEF80911C
:10105000E800915085FD06C085ED8A95F1F7000006
:101060009111F5CF8091E80085FF0CC040E050E081
:1010700065E070E0C9010E94230A8091E8008E7744
:101080008093E8000895CF93DF93EC018091E50110
:10109000843009F046C090910C019923D9F09091C9
:1010A0000D019923B9F08093E9008FEF9091E8004A
:1010B000815095FD06C095E19A95F1F700008111E8
:1010C000F5CF8091E80085FF2CC040E050E060E162
:1010D00070E017C081E08093E9008FEF9091E80005
:1010E000815095FD06C095ED9A95F1F700008111AC
:1010F000F5CF8091E80085FF14C040E050E068E043
:1011000070E0CE010E94230A8091E8008E778093E0
:10111000E80080E1FE01A2E5B1E001900D928A9520
:10112000E1F7DF91CF9108958091E401811109C029
:101130000E94B40B0E94110C8091E20084608093A5
:10114000E20008951092E401089508950C9490210E
:101150000E94EA1A0E9496210E94BC0E0C94B107CC
:1011600042E061EC81E00E942D0B42E061EC82E004
:101170000E942D0B42E061EC83E00E942D0B42E1C6
:1011800061EC84E00C942D0B8091E701833009F42D
:1011900055C030F4813071F0823009F48EC008956A
:1011A0008A3009F47AC08B3009F460C0893009F0C4
:1011B0009CC020C08091E601813A09F096C08091E0
:1011C000E800877F8093E8008091EA019091EB012D
:1011D000892B21F460E182E591E003C060E080E0CA
:1011E00090E070E00E946E0A8091E8008B77809317
:1011F000E80008958091E601813209F076C080917F
:10120000EA019091EB01009719F0039709F06DC086
:101210008091E800877F8093E8008091E80082FD5C
:1012200005C08091E5018111F8CF5FC08091F10088
:10123000809362018091E8008B7753C08091E60132
:10124000813A09F052C08091EA019091EB01892B1B
:1012500009F04BC08091E800877F8093E80080917F
:10126000E80080FFFCCF80910C0136C08091E60140
:101270008132D9F58091EA019091EB01892BA9F592
:101280008091E800877F8093E8000E94620B809144
:10129000E80180930C010C9431148091E6018132B5
:1012A00021F58091E800877F8093E8000E94620B1F
:1012B0008091E9018093630108958091E601813A6C
:1012C000A1F48091E800877F8093E8008091E80096
:1012D00080FFFCCF809163018093F1008091E80052
:1012E0008E778093E8000C94620B089584B7877F13
:1012F00084BF0FB6F894A8958091600088618093B0
:101300006000109260000FBE90E080E80FB6F89485
:1013100080936100909361000FBE0E940B0F0E94AA
:10132000B40B0E94110C8091E20084608093E20073
:1013300078940E949C0E0E940D0F82E091E00E9422
:10134000B70E0E947E218091E501853069F40E94EC
:10135000A91A8091E3018823B1F30E94D61A882349
:1013600091F30E940D0AEFCF0E94130FECCF292FAB
:10137000332723303105C9F060F42130310581F085
:101380002230310509F041C08DE690E024EC33E0D5
:1013900040C021323105E1F02232310531F135C052
:1013A00082E190E021E334E034C099278130910557
:1013B00049F028F0029749F5E0E9F3E005C0E0ECD8
:1013C000F3E002C0E8EAF3E0849190E09F0121C0DD
:1013D0006430D8F4E62FF0E0EE0FFF1FEE5DFE4F15
:1013E0002081318189E090E014C0643070F470E0B5
:1013F000FB01EE0FFF1FE65EFE4F20813181FB01F6
:10140000EA5EFE4F808190E004C080E090E020E042
:1014100030E0FA0131832083089580E189BD82E1C3
:1014200089BD09B400FEFDCF8091D8008F7D8093E7
:10143000D8008091E00082608093E0008091E0001D
:1014400081FDFCCF0895CF92DF92EF92FF920F9330
:101450001F93CF93DF93EC018B016A010E94810BF4
:10146000811133C0C114D10439F0F601808191811A
:10147000081B190BC80FD91FE12CF12C0115110500
:1014800019F18091E80085FD16C08091E8008E7703
:101490008093E800C114D10449F0F6018081918164
:1014A000E80EF91EF182E08285E00FC00E94810BF8
:1014B000882321F30AC089918093F100015011091A
:1014C000FFEFEF1AFF0ADACF80E0DF91CF911F9193
:1014D0000F91FF90EF90DF90CF9008952091EC0155
:1014E0003091ED012617370748F06115710539F481
:1014F0002091E8002E772093E80001C0B901FC019B
:1015000020E06115710579F18091E5018823F1F101
:101510008530F1F18091E80083FD3CC08091E800C6
:1015200082FD2EC08091E80080FFEBCF2091F30078
:101530008091F20090E0922B6115710551F0883096
:10154000910538F421912093F100615071090196C1
:10155000F3CF21E0089709F020E08091E8008E7732
:101560008093E800CECF2111CFCF0AC08091E50152
:10157000882361F0853061F08091E80083FD0AC026
:101580008091E80082FFF2CF80E0089582E0089524
:1015900083E0089581E008952091EC013091ED0100
:1015A0002617370748F06115710539F42091E800D6
:1015B0002E772093E80001C0B901FC0120E06115FD
:1015C000710591F18091E501882309F440C08530CF
:1015D00009F43FC08091E80083FD3DC08091E800A0
:1015E00082FD2FC08091E80080FFE9CF2091F300B9
:1015F0008091F20090E0922B6115710559F08830CE
:10160000910540F424912093F100319661507109C5
:101610000196F2CF21E0089709F020E08091E800E0
:101620008E778093E800CBCF2111CCCF0AC0809178
:10163000E501882361F0853061F08091E80083FD49
:101640000AC08091E80082FFF2CF80E0089582E036
:10165000089583E0089581E00895982F973068F504
:101660009093E900981739F07091EC002091ED000B
:101670005091F00003C0242F762F50E021FD02C0CE
:101680009F5FECCF3091EB003E7F3093EB003091C9
:10169000ED003D7F3093ED003091EB0031603093F1
:1016A000EB007093EC002093ED005093F00020913C
:1016B000EE0027FDE5CF80E008958F708093E9006C
:1016C00081E008958091E60187FF11C08091E800D4
:1016D00082FD05C08091E5018111F8CF11C0809194
:1016E000E8008B770BC08091E501882349F0809159
:1016F000E80080FFF8CF8091E8008E778093E800C3
:1017000008952091E4003091E50095E64091EC00C9
:10171000842F817040FF23C08091E80080FD1DC0B0
:101720008091E501882399F0853099F08091EB0054
:1017300085FD11C04091E4005091E5002417350764
:1017400029F3915011F09A01E1CF84E0089582E0ED
:10175000089583E0089581E0089580E00895409120
:10176000E80042FFDDCF08950E94220C0E942A0C5F
:10177000E0EEF0E0808181608083E8EDF0E0808140
:101780008F77808319BCA7EDB0E08C918E7F8C930E
:1017900080818F7E80831092E40108950F931F93C0
:1017A000CF93DF930E94220C0E942A0CC8EDD0E058
:1017B00088818F77888388818068888388818F7DFE
:1017C000888319BC1092E5011092E1011092E301A7
:1017D0001092E20100EE10E0F80180818B7F80839F
:1017E00088818160888342E060E080E00E942D0B68
:1017F000E1EEF0E080818E7F8083E2EEF0E0808198
:1018000081608083808188608083F80180818E7F01
:101810008083888180618883DF91CF911F910F91B0
:101820000895E8EDF0E080818F7E8083E7EDF0E0C1
:1018300080818160808384E082BF81E08093E401C5
:101840000C94CE0BE8EDF0E080818E7F80831092C7
:10185000E20008951092DA001092E10008951F92BC
:101860000F920FB60F9211242F933F934F935F93D4
:101870006F937F938F939F93AF93BF93EF93FF9358
:101880008091E10082FF0BC08091E20082FF07C0DF
:101890008091E1008B7F8093E1000E949B0E8091FC
:1018A000DA0080FF1FC08091D80080FF1BC08091AC
:1018B000DA008E7F8093DA008091D90080FF0DC01E
:1018C00080E189BD82E189BD09B400FEFDCF81E0E0
:1018D0008093E5010E94940805C019BC1092E501AF
:1018E0000E94A2088091E10080FF19C08091E2006F
:1018F00080FF15C08091E2008E7F8093E20080918E
:10190000E20080618093E2008091D8008062809341
:10191000D80019BC85E08093E5010E94A60880915B
:10192000E10084FF30C08091E20084FF2CC080E1A0
:1019300089BD82E189BD09B400FEFDCF8091D80048
:101940008F7D8093D8008091E1008F7E8093E100AD
:101950008091E2008F7E8093E2008091E2008160BE
:101960008093E2008091E101882311F084E007C0B8
:101970008091E30087FD02C081E001C083E0809395
:10198000E5010E94A8088091E10083FF29C08091B1
:10199000E20083FF25C08091E100877F8093E10012
:1019A00082E08093E5011092E1018091E1008E7F59
:1019B0008093E1008091E2008E7F8093E20080912D
:1019C000E20080618093E20042E060E080E00E94FB
:1019D0002D0B8091F00088608093F0000E94A50894
:1019E000FF91EF91BF91AF919F918F917F916F91F7
:1019F0005F914F913F912F910F900FBE0F901F90CD
:101A000018951F920F920FB60F9211242F933F93A8
:101A10004F935F936F937F938F939F93AF93BF93F6
:101A2000CF93DF93EF93FF93C091E900CF70809144
:101A3000EC00D82FD17080FDD0E81092E9008091A1
:101A4000F000877F8093F00078940E94450D1092FB
:101A5000E9008091F00088608093F000CD2BCF707A
:101A6000C093E900FF91EF91DF91CF91BF91AF91CA
:101A70009F918F917F916F915F914F913F912F91A6
:101A80000F900FBE0F901F9018951F93CF93DF9369
:101A9000CDB7DEB7AA970FB6F894DEBF0FBECDBFA5
:101AA000E6EEF1E08091F100819321E0EE3EF20755
:101AB000C9F70E94C4088091E80083FF24C1809187
:101AC000E6019091E701492F50E04A30510508F0B6
:101AD0001AC1FA01EA5AFF4F0C942723803881F08B
:101AE000823809F010C18091EA018F708093E9007B
:101AF0008091EB0085FB882780F91092E90006C0F1
:101B00008091E2019091E301911182609091E8004F
:101B1000977F9093E8008093F1001092F100C8C085
:101B2000282F2D7F09F0EFC0882319F0823061F053
:101B3000EAC08091E801813009F0E5C0933009F0F6
:101B400080E08093E3012BC08091E801811127C0E0
:101B50008091EA018F7009F4D6C08093E90020914A
:101B6000EB0020FF1CC0933021F48091EB008062D9
:101B700014C09091EB0090619093EB0021E030E075
:101B8000A90102C0440F551F8A95E2F74093EA006D
:101B90001092EA008091EB0088608093EB00109235
:101BA000E9008091E800877F86C08111ACC0109168
:101BB000E8011F778091E3008078812B8093E30018
:101BC0008091E800877F8093E8000E94620B8091FB
:101BD000E80080FFFCCF8091E30080688093E30001
:101BE000111102C082E001C083E08093E5018BC047
:101BF0008058823008F087C08091E8019091E90117
:101C00008C3D53E0950779F583E08A838AE28983E6
:101C10004FB7F894DE01139620E03EE051E2E32F47
:101C2000F0E050935700E49120FF03C0E295EF707D
:101C30003F5FEF708E2F90E0EA3010F0C79601C042
:101C4000C0968D939D932F5F243149F74FBF8091AC
:101C5000E800877F8093E8006AE270E0CE01019699
:101C60000E946E0A14C0AE014F5F5F4F6091EA019F
:101C70000E94B709BC01892B09F445C09091E80086
:101C8000977F9093E80089819A810E94CC0A809185
:101C9000E8008B778093E80036C08038A1F580910A
:101CA000E800877F8093E8008091E1018093F10054
:101CB0008091E8008E778093E8000E94620B23C039
:101CC000811121C08091E8019091E9019927029743
:101CD000D4F48091E800877F8093E8008091E80148
:101CE0008093E1010E94620B8091E101811106C0A5
:101CF0008091E30087FD02C081E001C084E0809311
:101D0000E5010E94B0088091E80083FF0AC080913D
:101D1000E800877F8093E8008091EB0080628093E9
:101D2000EB00AA960FB6F894DEBF0FBECDBFDF91D1
:101D3000CF911F9108950895CF938091E501882355
:101D4000A1F0C091E900CF709091EC00892F8170D3
:101D500090FD80E8C82B1092E9008091E80083FD97
:101D60000E94450DCF70C093E900CF9108959093E4
:101D70006901809368010895E0916801F09169011B
:101D8000309721F00190F081E02D099480E00895D2
:101D9000E0916801F0916901309721F00280F381B0
:101DA000E02D09940895E0916801F0916901309760
:101DB00021F00480F581E02D0994089520916601B9
:101DC000309167012817390771F09093670180936C
:101DD0006601E0916801F0916901309721F0068079
:101DE000F781E02D099408952091640130916501F7
:101DF0002817390771F09093650180936401E09191
:101E00006801F0916901309721F00084F185E02D9F
:101E10000994089508950C940A0F0E94F01A0E94E4
:101E200076040C94B61BCF92DF92EF92FF920F9341
:101E30001F93CF93DF93CDB7DEB72B970FB6F894F0
:101E4000DEBF0FBECDBF0E948E048BE6C82E81E0A0
:101E5000D82E00E010E0E02E802F0E948405F601CD
:101E600041916F01F82EF426B1F40F5F1F4F0E3031
:101E7000110589F78FEF89838A831B820E94F91AE3
:101E80008160782F9D838C8349815A816B818D81FC
:101E90000E94B60F40C09091CD0191FF04C08B8786
:101EA0000E948A058B8520E030E04F2D50E0922F74
:101EB000BA01022E02C0759567950A94E2F760FF99
:101EC00024C02E83EF8221E030E0690102C0CC0CF7
:101ED000DD1C9A95E2F790E08C219D21892B09F475
:101EE00020E028870E94F91A8160782F9A878987D5
:101EF0004E815F8168858A850E94B60FF801E55999
:101F0000FE4F8081C826C08206C02F5F3F4F26301B
:101F1000310569F6AACF0E949D1E0E94BC0E9091C9
:101F20006A018917A1F00E94BC0E80936A012B966A
:101F30000FB6F894DEBF0FBECDBFDF91CF911F91DA
:101F40000F91FF90EF90DF90CF900C94B1072B96FC
:101F50000FB6F894DEBF0FBECDBFDF91CF911F91BA
:101F60000F91FF90EF90DF90CF900895CF93DF9384
:101F7000CDB7DEB72B970FB6F894DEBF0FBECDBF3F
:101F80004F83588769877A878B87DE01119686E0B1
:101F9000FD0111928A95E9F785E0FE0137960190DF
:101FA0000D928A95E1F749815A816B817C818D81FF
:101FB0009E810E94C5162B960FB6F894DEBF0FBE09
:101FC000CDBFDF91CF9108950895CF93C82F882377
:101FD00009F4C1C0823859F40E94BC0E81FDBBC017
:101FE00089E30E9462190E942A1A89E30CC083388F
:101FF00079F40E94BC0E80FDAEC083E50E94621998
:102000000E942A1A83E50E94A119CF910C942A1AE2
:10201000843859F40E94BC0E82FD9DC087E40E9462
:1020200062190E942A1A87E4EECF8CEF8C0F813A56
:1020300048F48C2F0E94E32081118DC08C2F0E94C8
:102040006219E3CF80E28C0F883048F4C77081E0DA
:1020500001C0880FCA95EAF70E94E319D6CF8BE535
:102060008C0F833078F4C53A29F0C63A31F083E812
:1020700090E005C081E890E002C082E890E0CF9156
:102080000C94DE0E88E58C0F833108F064C0C83AEA
:1020900039F1C93A41F1CA3A49F1CB3A51F1CC3A56
:1020A00059F1CD3A61F1C03B69F1CE3A71F1CF3AC5
:1020B00079F1C13B81F1C23B89F1C33B91F1C43B52
:1020C00099F1C53BA1F1C63BA9F1C73BB1F1C83BB2
:1020D000B9F1C93BC1F1CA3BC9F180E090E038C019
:1020E00082EE90E035C089EE90E032C08AEE90E05A
:1020F0002FC085EB90E02CC086EB90E029C087EBE9
:1021000090E026C08CEC90E023C08DEC90E020C0E5
:1021100083E891E01DC08AE891E01AC082E991E06D
:1021200017C084E991E014C081E292E011C083E21B
:1021300092E00EC084E292E00BC085E292E008C01B
:1021400086E292E005C087E292E002C08AE292E075
:10215000CF910C94F40ECF910895882309F44BC0CD
:10216000823859F40E94BC0E81FF45C089E30E9469
:1021700062190E942A1A89E30CC0833871F40E9404
:10218000BC0E80FF38C083E50E9462190E942A1AA3
:1021900083E50E94A1190C942A1A843859F40E94EC
:1021A000BC0E82FF28C087E40E9462190E942A1A8E
:1021B00087E4EFCF9CEF980F913A58F390E2980F95
:1021C000983050F4877091E001C0990F8A95EAF732
:1021D000892F0E94E919DFCF9BE5980F933020F4F7
:1021E00080E090E00C94DE0E885A833120F480E089
:1021F00090E00C94F40E0895882321F00E94E319D6
:102200000C942A1A0895882321F00E94E9190C944D
:102210002A1A0895BF92CF92DF92EF92FF920F9306
:102220001F93CF93DF9300D000D000D0CDB7DEB79F
:102230007C0185E0F701DE01119601900D928A95EF
:10224000E1F7F70183819481892B09F4E6C2D080FC
:1022500011811F3F21F4FFEFDF1609F4DEC2F70101
:102260000281258122952F70C7012E830E94E40FE1
:10227000D9821A8389819A810E942119182FB92E37
:102280000E9420190E94E7172E81002319F00E9456
:10229000001A2E81EB2DE295EF704E2F50E0FA01DF
:1022A000E05AFF4F0C9427238B2D807F9B2D9F702E
:1022B000F92E882319F0F29480EFF822002349F0D8
:1022C000FF2009F457C28F2D0E94F3190E942A1A89
:1022D00051C2812F0E94AD10FF2009F49EC28F2DA4
:1022E0000E94F91926960FB6F894DEBF0FBECDBF37
:1022F000DF91CF911F910F91FF90EF90DF90CF90E2
:10230000BF900C942A1A3B2D307F8B2D8F7030326A
:1023100011F08295807F112319F0113021F12CC02A
:102320000023B9F0222309F490C1213009F08DC1B6
:1023300026960FB6F894DEBF0FBECDBFDF91CF91CA
:102340001F910F91FF90EF90DF90CF90BF900C9472
:10235000131A222319F0213009F45FC28E830E94E0
:10236000161A8E8186C1002321F0223008F055C252
:102370006CC1211152C27DC1002321F0222309F436
:1023800064C1F8C1222309F474C109C28B2D86955A
:102390008695837019F08130D1F03FC2002321F07F
:1023A000812F9B2D937002C080E090E026960FB69F
:1023B000F894DEBF0FBECDBFDF91CF911F910F917B
:1023C000FF90EF90DF90CF90BF900C94DE0E002333
:1023D00021F0812F9B2D937002C080E090E0269623
:1023E0000FB6F894DEBF0FBECDBFDF91CF911F9126
:1023F0000F91FF90EF90DF90CF90BF900C94F40E70
:10240000812F002319F00E94A51D02C00E940D1EFD
:1024100026960FB6F894DEBF0FBECDBFDF91CF91E9
:102420001F910F91FF90EF90DF90CF90BF900C9491
:10243000921E8B2D837009F075C00111EEC1812FA2
:10244000829586958770880F880F912F9F70C92E6F
:10245000D12CE12CF12C082E04C0CC0CDD1CEE1C80
:10246000FF1C0A94D2F714FF12C00FE010E020E026
:1024700030E004C0000F111F221F331F8A95D2F7CE
:10248000C901B801609570958095909503C060E092
:1024900070E0CB014B2D4695469543704230C1F01C
:1024A00060F56C297D298E299F29413051F12696AE
:1024B0000FB6F894DEBF0FBECDBFDF91CF911F9155
:1024C0000F91FF90EF90DF90CF90BF900C940E187B
:1024D0006C297D298E299F2926960FB6F894DEBF98
:1024E0000FBECDBFDF91CF911F910F91FF90EF9065
:1024F000DF90CF90BF900C942A180E940E18C7014D
:10250000B60126960FB6F894DEBF0FBECDBFDF91A1
:10251000CF911F910F91FF90EF90DF90CF90BF90E0
:102520000C94F217002319F08B2D817001C0869551
:10253000882309F472C1812F829586958770880F50
:10254000880F912F9F70C92ED12CE12CF12C082ED1
:1025500004C0CC0CDD1CEE1CFF1C0A94D2F714FF47
:1025600012C00FE010E020E030E004C0000F111FA7
:10257000221F331F8A95D2F7C901B8016095709563
:102580008095909503C060E070E0CB014B2D46959F
:10259000469543704230C1F060F56C297D298E2943
:1025A0009F29413051F126960FB6F894DEBF0FBE39
:1025B000CDBFDF91CF911F910F91FF90EF90DF90F2
:1025C000CF90BF900C94E8186C297D298E299F2903
:1025D00026960FB6F894DEBF0FBECDBFDF91CF9128
:1025E0001F910F91FF90EF90DF90CF90BF900C94D0
:1025F00004190E94E818C701B60126960FB6F89490
:10260000DEBF0FBECDBFDF91CF911F910F91FF9025
:10261000EF90DF90CF90BF900C94CC18103FD1F189
:1026200018F4103E50F4A1C0123F09F463C008F43E
:102630004CC0133F09F473C098C01F708B2D8F716D
:102640000023A1F00E946518812F26960FB6F894FA
:10265000DEBF0FBECDBFDF91CF911F910F91FF90D5
:10266000EF90DF90CF90BF900C94FC100E948618E2
:10267000812F26960FB6F894DEBF0FBECDBFDF9137
:10268000CF911F910F91FF90EF90DF90CF90BF906F
:102690000C9403110023A9F02111BFC08B2D8F7161
:1026A00026960FB6F894DEBF0FBECDBFDF91CF9157
:1026B0001F910F91FF90EF90DF90CF90BF900C94FF
:1026C000AB18223008F0A9C0E9CF0023A9F08B2D68
:1026D0008F7126960FB6F894DEBF0FBECDBFDF9187
:1026E000CF911F910F91FF90EF90DF90CF90BF900F
:1026F0000C946518002359F38B2D8F7126960FB615
:10270000F894DEBF0FBECDBFDF91CF911F910F9127
:10271000FF90EF90DF90CF90BF900C94861800232D
:1027200099F08B2D8F7126960FB6F894DEBF0FBEF1
:10273000CDBFDF91CF911F910F91FF90EF90DF9070
:10274000CF90BF900C94501826960FB6F894DEBF29
:102750000FBECDBFDF91CF911F910F91FF90EF90F2
:10276000DF90CF90BF900C9446180023A9F022234D
:1027700009F4ADCF812F26960FB6F894DEBF0FBEB9
:10278000CDBFDF91CF911F910F91FF90EF90DF9020
:10279000CF90BF900C94E50F222309F4ADCF812F89
:1027A00026960FB6F894DEBF0FBECDBFDF91CF9156
:1027B0001F910F91FF90EF90DF90CF90BF900C94FE
:1027C000AD104B2D4F70612FC7010E940803269654
:1027D0000FB6F894DEBF0FBECDBFDF91CF911F9132
:1027E0000F91FF90EF90DF90CF90BF900C946A17FD
:1027F0004B2D4F70612FC70126960FB6F894DEBFA0
:102800000FBECDBFDF91CF911F910F91FF90EF9041
:10281000DF90CF90BF900C944B0626960FB6F8949D
:10282000DEBF0FBECDBFDF91CF911F910F91FF9003
:10283000EF90DF90CF90BF9008950E94001A0E9401
:10284000101A0E94D5190E942A1A0E94421F0E9443
:10285000921E80E090E00E94DE0E80E090E00C94FA
:10286000F40E0E94F0190C941D140E942119292FB6
:1028700022952F702C3030F42A3048F42250223028
:1028800078F405C02C3041F02F3031F009C0803E83
:1028900048F0803F29F406C093FB882780F908950B
:1028A00080E0089581E00895CF93DF9300D000D0B9
:1028B0001F92CDB7DEB70F900F900F900F900F9033
:1028C000DF91CF910895CF93DF9300D000D000D057
:1028D000CDB7DEB726960FB6F894DEBF0FBECDBFDC
:1028E000DF91CF9108951F93CF93DF93C09179012A
:1028F00016E080917A01C81799F0D0E01C9FF00192
:102900001D9FF00D1124E558FE4F408151816281D9
:102910007381848195810E9463142196C770E9CFE9
:10292000DF91CF911F9108954091AB015091AC017F
:102930006091AD017091AE018091AF019091B001B5
:102940000C9463148091B00182958F7009F054C08B
:102950008091AD01882309F44FC080917901A09145
:102960007A014091AE015091AF016091AB0170913D
:10297000AC01B6E08A1709F43FC090E0411551055B
:10298000C1F17F3F11F46F3FA1F1B89FF001B99FF2
:10299000F00D1124E558FE4F218127132AC0208114
:1029A000261327C02281211124C0238134812417BA
:1029B000350710F421503109241B350B283C310513
:1029C000C0F42091B0012F7020612093B00126E067
:1029D000289FF001299FF00D1124E058FE4F8081BF
:1029E0008F70806180838BEA91E00E940A110C94C1
:1029F000731401968770BECF0895CF92DF92EF9245
:102A0000FF920F931F93CF93DF93CDB7DEB76297FB
:102A10000FB6F894DEBF0FBECDBF8C0185E0F80184
:102A2000DE011D9601900D928A95E1F7D8014C9137
:102A300011965C91119712966C918091AE019091D4
:102A4000AF01009709F475C13091AB017091AC01F1
:102A50007F3F19F43F3F09F46CC1F801C380D48073
:102A6000E090AD01EE2009F4BEC02091B001C8167F
:102A7000D90628F0D601A81BB90BCD0104C080955A
:102A800090958C0D9D1DFF24F394883C910578F062
:102A9000F12C207F09F0C4C07C2DD98AC88A89898D
:102AA0000E9454148BEA91E00E940A11AFC0822F59
:102AB000807F09F045C0571313C0431311C0611143
:102AC0000FC02F7020612093B0010E9494148BEAF4
:102AD00091E00E940A118091B001F80185832EC017
:102AE000CD2819F15F3F11F44F3FF9F0F62E611137
:102AF0001CC08091790120917A0136E0821709F497
:102B00005BC090E0389FF001399FF00D1124E5582B
:102B1000FE4F7181571306C07081471303C0728145
:102B2000711103C001968770E9CFF62E662309F470
:102B30001CC18091B00181608093B001F12C15C15E
:102B4000571309C0431307C0611105C08091B0013C
:102B5000F8018583C8C04D875E878D859E856A8B09
:102B60000E9435146A898823D1F16623C1F120912E
:102B7000B001822F82958F7090E0029774F080915F
:102B8000AB019091AC0198878F831986DB86CA864A
:102B90002C87CE0107960E940A1186E0F801ABEA65
:102BA000B1E001900D928A95E1F70E94A2140E9473
:102BB0009414FF24F394D9C04D875E878D859E853C
:102BC0000E942119292F22952F70223008F0C1C0B0
:102BD0009F7009F0BBC0805E883008F4C6C0C80191
:102BE0000E940A11E6CFC816D90608F453C0F601B0
:102BF000E81BF90BCF01883C910508F450C0F12C7B
:102C00007C2DD98AC88A89890E945414EBEAF1E0A4
:102C100086E0DF011D928A95E9F70E949414A5C011
:102C2000571314C0431312C0611110C08091B0013A
:102C3000F8018583C8010E940A1186E0EBEAF1E001
:102C4000DF011D928A95E9F7FE2C8FC04D875E87C4
:102C50008D859E856A8B0E9435146A89882309F4C4
:102C6000BECF662309F4BBCF2091B001822F82959D
:102C70008F7090E002970CF490CF8091AB0190910F
:102C8000AC019A8389831B82DD82CC822E83CE01A4
:102C9000019681CF809590958C0D9D1DACCFF62E21
:102CA000662309F49CCF571333C0431331C02091DE
:102CB000B00120FD24C0822F82958F70482F50E0F4
:102CC00041155105E1F0D80115962C9315974F3019
:102CD000510549F08F5F982F9295907F822F8F70CA
:102CE000892B15968C93C8010E940A1186E0F80181
:102CF000ABEAB1E001900D928A95E1F78ECF86E0C4
:102D0000F801ABEAB1E001900D928A95E1F72DC090
:102D10004D875E878D859E850E94351481113DCF3C
:102D20008091B00181608093B001C8010E940A11B6
:102D30001CC0662309F453CF4D875E878D859E8521
:102D40000E943514882309F44ACF27CF811143CF3D
:102D50000CC0243008F043CF9F7009F43CCFD80159
:102D600015969C91907F09F036CF8F2D62960FB605
:102D7000F894DEBF0FBECDBFDF91CF911F910F91B1
:102D8000FF90EF90DF90CF9008951F93CF93DF9344
:102D9000CDB7DEB72C970FB6F894DEBF0FBECDBF10
:102DA0004F83588769877A878B879C87CE010796E0
:102DB0000E94FD14882371F08A859B85892B09F474
:102DC00041C088858F3F09F065C08F818F3F09F032
:102DD00061C038C086E0FE013796DE011196019091
:102DE0000D928A95E1F76A857B856115710551F130
:102DF000FF81E885EF3F11F4FF3F21F120917A0137
:102E000030E0C9010196877099274091790150E01F
:102E10008417950709F447C0F983EA837D836C839F
:102E200096E0929FD001939FB00D1124A558BE4FFC
:102E3000FE01319601900D929A95E1F780937A0107
:102E40000E94731416E08091790190917A0189179C
:102E5000B9F1189FC001112485589E4F0E94FD149E
:102E6000882371F1E09179011E9FF0011124E5584A
:102E7000FE4F4081518162817381848195810E94DE
:102E800063148091790190E001968770992780936F
:102E90007901D9CF4F81588569857A858B859C8545
:102EA0000E946314CFCF0E94311410927A011092C5
:102EB0007901EBEAF1E086E0DF011D928A95E9F7FE
:102EC0002C960FB6F894DEBF0FBECDBFDF91CF9129
:102ED0001F910895EF92FF920F931F93CF93DF936B
:102EE0008C01892B09F46CC0F12CEE24E394E801E9
:102EF0002196F8018491843740F4843008F051C061
:102F0000813081F0823019F15BC0853709F444C00B
:102F1000A8F19CE7980F903708F052C08F770E9475
:102F2000AD1041C00E5F1F4FFE01849190E2980FDB
:102F3000983050F48770FE2D01C0FF0F8A95EAF794
:102F40008F2F0E94031A14C00E94E50F2DC00E5F40
:102F50001F4FFE01849190E2980F983060F48770C3
:102F6000FE2D01C0FF0F8A95EAF78F2F0E94091AE4
:102F70000E942A1A19C00E94AD1016C00E5F1F4F82
:102F8000FE01C491CC2381F08FE99FE00197F1F716
:102F900000C00000C150F6CF0E5F1F4FFE01F4903D
:102FA00003C00E94E50F8E018F2D882309F49FCF67
:102FB000EFE9FFE03197F1F700C000008150F5CF55
:102FC000DF91CF911F910F91FF90EF900895089599
:102FD0006093B5017093B6018093B7019093B801E7
:102FE0000C941D140F931F930091B5011091B6011D
:102FF0002091B7013091B801DC01CB01802B912BDE
:10300000A22BB32B8093B5019093B601A093B70187
:10301000B093B8011F910F910C941D140F931F933F
:103020000091B5011091B6012091B7013091B8011E
:10303000DC01CB0180239123A223B3238093B5012C
:103040009093B601A093B701B093B8011F910F916F
:103050000C941D140F931F930091B5011091B601AC
:103060002091B7013091B801DC01CB018027912775
:10307000A227B3278093B5019093B601A093B7011F
:10308000B093B8011F910F910C941D141092B101CF
:103090001092B2011092B3011092B4010C941D145D
:1030A00041E050E060E070E004C0440F551F661F2F
:1030B000771F8A95D2F74093B1015093B201609384
:1030C000B3017093B4010C941D1441E050E060E032
:1030D00070E004C0440F551F661F771F8A95D2F712
:1030E0008091B1019091B201A091B301B091B4016E
:1030F000482B592B6A2B7B2B4093B1015093B20183
:103100006093B3017093B4010C941D1441E050E03E
:1031100060E070E004C0440F551F661F771F8A955A
:10312000D2F740955095609570958091B10190913E
:10313000B201A091B301B091B401482359236A238D
:103140007B234093B1015093B2016093B30170931C
:10315000B4010C941D1441E050E060E070E004C044
:10316000440F551F661F771F8A95D2F78091B101D2
:103170009091B201A091B301B091B40148275927B1
:103180006A277B274093B1015093B2016093B3014A
:103190007093B4010C941D140F931F930091B1010F
:1031A0001091B2012091B3013091B401DC01CB0147
:1031B000802B912BA22BB32B8093B1019093B20162
:1031C000A093B301B093B4011F910F910C941D14FF
:1031D0000F931F930091B1011091B2012091B3019F
:1031E0003091B401DC01CB0180239123A223B323CE
:1031F0008093B1019093B201A093B301B093B40155
:103200001F910F910C941D140F931F930091B10106
:103210001091B2012091B3013091B401DC01CB01D6
:1032200080279127A227B3278093B1019093B20101
:10323000A093B301B093B4011F910F910C941D148E
:103240000895CF92DF92EF92FF920F931F93CF9347
:10325000DF938C01C090B101D090B201E090B30136
:10326000F090B4018091B5019091B601A091B701A1
:10327000B091B801C82AD92AEA2AFB2ACFE1D0E0C6
:10328000D701C6010C2E04C0B695A79597958795D2
:103290000A94D2F780FF07C0B8018C2F0E946F06F6
:1032A0008130910531F4219758F7B80180E00E94F0
:1032B0006F06DF91CF911F910F91FF90EF90DF90FC
:1032C000CF90089590910C019923F1F090910D0108
:1032D0009923D1F0982F9695969596959F3080F5E5
:1032E000E0910E01F0910F01E90FF11D877021E0CF
:1032F00030E0A90102C0440F551F8A95E2F7CA01C8
:103300009181892B8183089520910E0130910F01C5
:10331000F90132969FEF40E05191851789F09F3F68
:1033200019F4511101C0942F4F5F4E30A9F79F3F00
:1033300039F0F901E90FF11D97FDFA95828308959F
:10334000089590910C019923F9F090910D01992322
:10335000D9F0982F9695969596959F3028F5E091FF
:103360000E01F0910F01E90FF11D877021E030E0AF
:10337000A90102C0440F551F8A95E2F7CA01809542
:10338000918189238183089520910E0130910F014D
:10339000F9013296205F3F4F9081891301C010825E
:1033A0003196E217F307C1F7089581E090E0E091CC
:1033B0000E01F0910F01E80FF91F10820196803184
:1033C0009105A9F708959091CC01892B8093CC01A8
:1033D000089580959091CC0189238093CC01089524
:1033E0001092CC0108959091CB01892B8093CB0151
:1033F000089580959091CB0189238093CB01089506
:103400001092CB0108959091CA01892B8093CA0133
:10341000089580959091CA0189238093CA010895E7
:103420001092CA0108958093B90108951092B901CC
:10343000089580910E0190910F01FC0131969C013D
:10344000205F3F4F80E0919191118F5FE217F3076A
:10345000D1F70895E0910E01F0910F018091CC0118
:103460008083E0910E01F0910F0190818091CB015A
:10347000892B8083E0910E01F0910F019081809162
:10348000CA01892B80838091B901882361F0E09182
:103490000E01F0910F019081892B80830E94191AEF
:1034A00081111092B90180910E0190910F010C943D
:1034B000C80ECF92DF92EF92FF926C01EE24FF24B0
:1034C000C114D104E104F10421F0C701B60120E1E7
:1034D00001C020E0C72ED82EE92EFF24C114D1044C
:1034E000E104F10419F0285FC701B6016B017C010A
:1034F00054E0F694E794D794C7945A95D1F7C11441
:10350000D104E104F10419F02C5FC701B6016B018D
:103510007C0142E0F694E794D794C7944A95D1F79A
:10352000C114D104E104F10419F02E5FC701B60102
:10353000DC01CB01B695A79597958795892B8A2BAA
:103540008B2B09F02F5F822FFF90EF90DF90CF90B1
:1035500008958091E501843029F120E488E190E02C
:103560000FB6F894A895809360000FBE209360007A
:1035700080E00E94B10783B7817F846083BF83B7F7
:10358000816083BF7894889583B78E7F83BF0FB6A1
:10359000F894A895809160008861809360001092F3
:1035A00060000FBE089508950C94D31ACF930E9423
:1035B000D41A0E948E040E94D31AC0E08C2F0E945D
:1035C0008405811104C0CF5FCE30C1F701C081E016
:1035D000CF9108950E9431140E94BC0E0C94B10743
:1035E00082E084BD93E095BD9AEF97BD80936E0015
:1035F00008952FB7F8948091CE019091CF01A091BA
:10360000D001B091D1012FBF0895CF92DF92EF92F8
:10361000FF920F931F932FB7F8944091CE015091D2
:10362000CF016091D0017091D1012FBF6A017B0160
:10363000EE24FF248C0120E030E0C016D106E20623
:10364000F30610F4415051099A01281B390BC901A6
:103650001F910F91FF90EF90DF90CF9008951F92F0
:103660000F920FB60F9211248F939F93AF93BF9336
:103670008091CE019091CF01A091D001B091D10164
:103680000196A11DB11D8093CE019093CF01A0930F
:10369000D001B093D101BF91AF919F918F910F90C5
:1036A0000FBE0F901F9018950E94B40BF8942FEF47
:1036B00087EA91E6215080409040E1F700C0000089
:1036C00087E090EBDC018093EE019093EF01A093F3
:1036D000F001B093F1019CE088E10FB6F894A89551
:1036E000809360000FBE90936000FFCFEF92FF9237
:1036F0000F931F93CF93DF93D82FC0E08C2F0E949E
:10370000840500E010E0E82EF12CC701002E02C075
:10371000959587950A94E2F780FD06C00F5F1F4FCD
:103720000630110591F709C0602F7C2F80E00E94C0
:103730004C068D13F3CF81E004C0CF5FCE30F1F69D
:1037400080E0DF91CF911F910F91FF90EF9008954E
:10375000CF93C82F8CE20E94761B882321F08C2FF8
:10376000CF910C94761B80E0CF910895CF930E9467
:10377000FD1C811102C00E94E31CC5E6C15049F046
:103780000E948E048FE39CE90197F1F700C00000CE
:10379000F5CF89E20E94A81B811113C18AE20E9421
:1037A000A81B81110E94E31C85E00E94A81B8111C7
:1037B0000E94541B0E94081D8093CD0187E00E9447
:1037C000A81B8823A9F18BE10E94A81B882351F034
:1037D0008091CD0181FB222720F991E0922790FB77
:1037E00081F90EC08EE00E94A81B882361F08091B1
:1037F000CD0182FB222720F991E0922790FB82F9EC
:103800008093CD0115C080E10E94A81B9091CD014D
:10381000882341F093FB222720F981E0822780FB57
:1038200093F904C0892F809580FB90F99093CD0186
:103830008091CD010E940C1D0E941A1D8093DF0112
:1038400080EE0E94A81B882341F08091DF01982F11
:10385000909590FB80F98093DF0189E30E94A81B7B
:10386000882359F08091DF0181FB222720F991E024
:10387000922790FB81F98093DF0182EE0E94A81BC2
:10388000882359F08091DF0182FB222720F991E003
:10389000922790FB82F98093DF0186EE0E94A81B9D
:1038A000882359F08091DF0183FB222720F991E0E2
:1038B000922790FB83F98093DF0183EE0E94A81B7F
:1038C000882359F08091DF0184FB222720F991E0C1
:1038D000922790FB84F98093DF0185E30E94A81B67
:1038E000882359F08091DF0185FB222720F991E0A0
:1038F000922790FB85F98093DF0181E30E94A81B4A
:10390000882359F08091DF0186FB222720F991E07E
:10391000922790FB86F98093DF0181E10E94A81B2A
:10392000882359F08091DF0187FB222720F991E05D
:10393000922790FB87F98093DF018091DF010E943D
:103940001E1D8091DF0187FB882780F980930D0180
:1039500087E20E94A81BC82F8EE10E94A81B81113C
:10396000C2608FE10E94A81B8111C46080E20E94A6
:10397000A81B8111C86081E20E94A81B8111C0614F
:1039800082E20E94A81B8111C06283E20E94A81BF0
:103990008111C06484E20E94A81B882311F0C068D2
:1039A00002C0CC2329F08C2F0E94151D6C2F03C060
:1039B0000E94111D682F70E080E090E0CF910C9480
:1039C000E817CF9108956DEE7EEF80E090E00E94C1
:1039D0005D2360E082E090E00E944F2360E083E09E
:1039E00090E00E944F2360E084E090E00E944F232B
:1039F00060E085E090E00C944F2380E090E00E942E
:103A0000492321E08D3E9E4F09F020E0822F08954A
:103A100082E090E00C944123682F82E090E00C94C7
:103A20004F2383E090E00C944123682F83E090E0E3
:103A30000C944F2384E090E00C944123682F84E0A1
:103A400090E00C944F238091D40180FF0BC06091D3
:103A5000130185E0689FB0011124759567957595F0
:103A600067952BC081FF09C06091130185E0689FB5
:103A7000B00111247595679520C082FF07C0609141
:103A8000130185E0689FB001112417C09091D50102
:103A90009923D1F060911201961788F720911301B4
:103AA00085E0289F90011124929FA001939F500DC3
:103AB000112470E0CA010E9413236038710540F49C
:103AC0006115710519F406C065E070E0862F089550
:103AD0008FE7089581E008958091D40180FF08C0A8
:103AE0006091110170E0759567957595679521C096
:103AF00081FF06C06091110170E07595679519C04E
:103B000082FF04C06091110170E010C09091D50156
:103B1000992399F0609110019617A0F780911101F7
:103B2000899FC001112470E00E9413236038710541
:103B300040F46115710519F406C061E070E0862F4C
:103B400008958FE7089581E00895803F21F40E9451
:103B5000231D819504C0813F29F40E94231D809379
:103B6000D8010895823F21F40E94231D819504C04D
:103B7000833F29F40E94231D8093D7010895893F34
:103B800019F40E946C1D05C08A3F31F40E946C1D1F
:103B900081958093D90108958B3F21F40E946C1D7B
:103BA000819504C08C3F29F40E946C1D8093DA013A
:103BB0000895843F21F48091D601816017C0853F2C
:103BC00021F48091D601826011C0863F21F480915A
:103BD000D60184600BC0873F21F48091D6018860B4
:103BE00005C0883F31F48091D60180618093D60171
:103BF00008958D3F21F48091D40181600BC08E3FE8
:103C000021F48091D401826005C08F3F29F4809116
:103C1000D40184608093D4010895803F39F4809169
:103C2000D80187FF6CC01092D80169C0813F29F488
:103C30008091D8011816BCF362C09091D701823FE1
:103C400029F497FF5CC01092D70159C0833F19F443
:103C50001916CCF354C0893F41F48091D90118164C
:103C60000CF04DC01092D9014AC08A3F29F48091CE
:103C7000D90187FF44C0F6CF8B3F39F48091DA0138
:103C800087FF3DC01092DA013AC08C3F29F4809141
:103C9000DA011816BCF333C0843F21F48091D601B9
:103CA0008E7F17C0853F21F48091D6018D7F11C092
:103CB000863F21F48091D6018B7F0BC0873F21F492
:103CC0008091D601877F05C0883F31F48091D6016D
:103CD0008F7E8093D60113C08D3F21F48091D40153
:103CE0008E7F0BC08E3F21F48091D4018D7F05C063
:103CF0008F3F29F48091D4018B7F8093D4018091F0
:103D0000D70181110EC08091D80181110AC0809124
:103D1000D901811106C08091DA01811102C010928F
:103D2000D501089586ED91E00E94D30E0E94F91A04
:103D30009093D3018093D20108951F93CF93DF9383
:103D40008091D2019091D3010E94051BAC0190910A
:103D5000D501992321F02091140130E006C0209173
:103D600015018AE0289F900111244217530708F497
:103D700085C08091D701C091D801D091D90110910F
:103D8000DA01811107C0C11175C0D11173C01111C1
:103D900071C074C09F3F19F09F5F9093D5011816B2
:103DA00024F40E94231D8093D7018091D70187FFBF
:103DB00005C00E94231D81958093D7011C1624F411
:103DC0000E94231D8093D8018091D80187FF05C0F0
:103DD0000E94231D81958093D8016091D7016623AD
:103DE00031F1C091D801CC2311F1062E000C770BD4
:103DF000880B990B0E941A2223E333E343E35FE32A
:103E00000E947E220E94E2216093D7016C2FCC0F8A
:103E1000770B880B990B0E941A2223E333E343E3C9
:103E20005FE30E947E220E94E2216093D8011D166A
:103E300024F40E946C1D8093D9018091D90187FFE1
:103E400005C00E946C1D81958093D901111624F440
:103E50000E946C1D8093DA018091DA0187FF05C012
:103E60000E946C1D81958093DA01DF91CF911F91A3
:103E70000C94921E9F3F09F08FCFA0CFDF91CF917E
:103E80001F910895E6EDF1E085E0DF011D928A952E
:103E9000E9F71092D5011092D4010895833081F191
:103EA00028F4813059F08230D1F00895853009F43A
:103EB00049C0B8F1863009F456C0089580911501C3
:103EC000262F30E0280F311D2F3F310524F4680FD5
:103ED0006093150108958FEF8093150108958091E7
:103EE0001401262F30E0280F311D2F3F310524F417
:103EF000680F6093140108958FEF80931401089563
:103F000080911301262F30E0280F311D2F3F3105FE
:103F100024F4680F6093130108958FEF80931301C9
:103F2000089580911201262F30E0280F311D2F3F78
:103F3000310524F4680F6093120108958FEF809388
:103F40001201089580911101262F30E0280F311DB4
:103F50002F3F310524F4680F6093110108958FEF0E
:103F600080931101089580911001262F30E0280FD1
:103F7000311D2F3F310524F4680F6093100108951F
:103F80008FEF809310010895833011F128F4813070
:103F900049F0823091F00895853081F120F186302A
:103FA000C1F1089580911501681720F4861B809354
:103FB0001501089510921501089580911401681754
:103FC00020F4861B80931401089510921401089523
:103FD00080911301681720F4861B809313010895C4
:103FE00010921301089580911201681720F4861B26
:103FF0008093120108951092120108958091110189
:10400000681720F4861B8093110108951092110106
:10401000089580911001681720F4861B8093100189
:1040200008951092100108950F931F938D3109F494
:104030006AC008F03FC08E3009F484C0C0F48730F5
:1040400009F46DC068F4863009F0B5C08091CD01E7
:10405000817F8E7F8093CD0181E08093DC01ACC0B5
:10406000883009F457C08B3009F46AC0A4C0863187
:1040700009F466C078F4803109F477C0813109F021
:104080009AC00E94311490910D0181E0892780939C
:104090000D0156C0893109F453C08B3109F08BC032
:1040A0008091CD0181FB222720F991E0922790FB9E
:1040B00081F951C0853309F475C048F4873209F499
:1040C00071C008F45EC0893209F46CC074C08334D6
:1040D00030F48A3308F053C0883391F16CC08334D4
:1040E00009F460C0883409F066C00E9431140FEFF3
:1040F00013ED20E3015010402040E1F700C0000024
:104100000E94541B1DC00E949C210E94BC0E0E9454
:10411000B10716C00E94081D0E941A1D11C090917F
:10412000CD01892F8095817080FB90F929F09660F0
:1041300098609093CD0140C0997F977F9093CD0177
:1041400081E03AC08091CD0182FB222720F991E0E5
:10415000922790FB82F98093CD01992389F3809176
:10416000CD0181608093CD01EBCF8091CD0183FBA8
:10417000222720F991E0922790FB83F9ECCF895315
:1041800001C08D5141E050E060E070E08A019B0188
:1041900004C0000F111F221F331F8A95D2F7C901D7
:1041A000B80104C061E070E080E090E00E94E81790
:1041B0000E943114C5CF80E01F910F91089580E0D7
:1041C00008950C94DF20CF93C82F8091DC018130BB
:1041D00079F018F08230E9F187C0E0910E01F0919A
:1041E0000F018081813169F0823209F07FC009C0FE
:1041F000E0910E01F0910F018081813111F0823246
:1042000061F48C2F0E94E120811104C08C2F0E9448
:1042100014201DC081E090E01AC08C2F0E94DF2086
:10422000811114C0C43179F048F4CB3079F0C03139
:1042300009F060C082E08093DC0108C0C93219F047
:10424000C83321F057C01092DC0154C081E0817066
:1042500053C0C93289F118F5C43171F1A8F4C730DF
:1042600009F046C08AE08093150194E1909314010F
:1042700093E0909313018093120188E080931101E1
:1042800088E28093100134C0CE51C63088F5EC2FFF
:10429000F0E0E65DFE4F80818093DB0129C0CE34E3
:1042A000E9F020F4CB3421F56AE013C0C13579F090
:1042B000C235F1F461E00DC08091DB01882319F073
:1042C0001092DB0115C081E08093DC0115C061E034
:1042D00006C08091DB010E944E1F0AC06AE08091F7
:1042E000DB010E94C41F04C01092DC0180E004C006
:1042F00081E002C080E0ABCFCF910895E1E8F0E02B
:104300008081886080838081816080838FB7F8940A
:1043100093E09093890090ED909388008FBF08956B
:10432000EFE6F0E08081826080830895EFE6F0E0C0
:1043300080818D7F80830895EFE6F0E0908182E0B8
:104340008927808308951F920F920FB60F92112430
:104350002F933F934F935F936F937F938F939F938D
:10436000AF93BF93EF93FF938091DD019091DE01B6
:1043700001969093DE018093DD01811103C082E0FC
:104380000E94B107E091DE01E695E695F0E0E25C7F
:10439000FA4FE4918091DD018E1303C080E00E940A
:1043A000B107FF91EF91BF91AF919F918F917F9155
:1043B0006F915F914F913F912F910F900FBE0F9092
:1043C0001F9018950E94E9216894B1110C947822ED
:1043D00008950E945D2288F09F5798F0B92F992781
:1043E000B751B0F0E1F0660F771F881F991F1AF0E0
:1043F000BA95C9F714C0B13091F00E947722B1E0AC
:1044000008950C947722672F782F8827B85F39F0AA
:10441000B93FCCF3869577956795B395D9F73EF478
:1044200090958095709561957F4F8F4F9F4F089520
:10443000E89409C097FB3EF490958095709561953E
:104440007F4F8F4F9F4F9923A9F0F92F96E9BB27F4
:104450009395F695879577956795B795F111F8CF70
:10446000FAF4BB0F11F460FF1BC06F5F7F4F8F4FDB
:104470009F4F16C0882311F096E911C0772321F0D1
:104480009EE8872F762F05C0662371F096E8862F69
:1044900070E060E02AF09A95660F771F881FDAF7C0
:1044A000880F9695879597F9089557FD9058440F72
:1044B000551F59F05F3F71F04795880F97FB991F83
:1044C00061F09F3F79F08795089512161306140640
:1044D000551FF2CF4695F1DF08C0161617061806CD
:1044E000991FF1CF86957105610508940895E894A8
:1044F000BB2766277727CB0197F908950E94912261
:104500000C9402230E94F42238F00E94FB2220F037
:10451000952311F00C94EB220C94F12211240C94AD
:1045200078220E94552270F3959FC1F3950F50E0B9
:10453000551F629FF001729FBB27F00DB11D639F55
:10454000AA27F00DB11DAA1F649F6627B00DA11DFB
:10455000661F829F2227B00DA11D621F739FB00DA1
:10456000A11D621F839FA00D611D221F749F332711
:10457000A00D611D231F849F600D211D822F762FAA
:104580006A2F11249F5750409AF0F1F088234AF087
:10459000EE0FFF1FBB1F661F771F881F91505040F3
:1045A000A9F79E3F510580F00C94EB220C947822E1
:1045B0005F3FE4F3983ED4F3869577956795B7957A
:1045C000F795E7959F5FC1F7FE2B880F911D969594
:1045D000879597F9089597F99F6780E870E060E004
:1045E00008959FEF80EC089500240A94161617068C
:1045F00018060906089500240A94121613061406D4
:1046000005060895092E0394000C11F4882352F036
:10461000BB0F40F4BF2B11F460FF04C06F5F7F4FEE
:104620008F4F9F4F089597FB072E16F4009407D0E5
:1046300077FD09D00E942D2307FC05D03EF490950C
:1046400081959F4F0895709561957F4F0895EE0F66
:10465000FF1F0590F491E02D0994AA1BBB1B51E1AB
:1046600007C0AA1FBB1FA617B70710F0A61BB70BE2
:10467000881F991F5A95A9F780959095BC01CD0187
:104680000895F999FECF92BD81BDF89A992780B51A
:104690000895A8E1B0E042E050E00C946423262F96
:1046A000F999FECF1FBA92BD81BD20BD0FB6F89417
:1046B000FA9AF99A0FBE019608950E944F23272F68
:1046C0000C945023DC01CB01FC01F999FECF06C00C
:1046D000F2BDE1BDF89A319600B40D9241505040C0
:0846E000B8F70895F894FFCF2C
:1046E8002002B30743081E08EA07B6070101BA010A
:1046F80028080A03140A3F4D3639FF04B2047C0423
:104708004304D603EF030804210401020304050649
:044718000708090085
:00000001FF
